{
  "_format": "hh-sol-artifact-1",
  "contractName": "TfiFeedAdapter",
  "sourceName": "contracts/TfiFeedAdapter.sol",
  "abi": [
    {
      "anonymous": false,
      "inputs": [
        {
          "indexed": true,
          "internalType": "int256",
          "name": "current",
          "type": "int256"
        },
        {
          "indexed": true,
          "internalType": "uint256",
          "name": "roundId",
          "type": "uint256"
        },
        {
          "indexed": false,
          "internalType": "uint256",
          "name": "updatedAt",
          "type": "uint256"
        }
      ],
      "name": "AnswerUpdated",
      "type": "event"
    },
    {
      "anonymous": false,
      "inputs": [
        {
          "indexed": false,
          "internalType": "uint8",
          "name": "version",
          "type": "uint8"
        }
      ],
      "name": "Initialized",
      "type": "event"
    },
    {
      "anonymous": false,
      "inputs": [
        {
          "indexed": true,
          "internalType": "uint256",
          "name": "roundId",
          "type": "uint256"
        },
        {
          "indexed": true,
          "internalType": "address",
          "name": "startedBy",
          "type": "address"
        },
        {
          "indexed": false,
          "internalType": "uint256",
          "name": "startedAt",
          "type": "uint256"
        }
      ],
      "name": "NewRound",
      "type": "event"
    },
    {
      "inputs": [],
      "name": "decimals",
      "outputs": [
        {
          "internalType": "uint8",
          "name": "",
          "type": "uint8"
        }
      ],
      "stateMutability": "pure",
      "type": "function"
    },
    {
      "inputs": [],
      "name": "description",
      "outputs": [
        {
          "internalType": "string",
          "name": "",
          "type": "string"
        }
      ],
      "stateMutability": "pure",
      "type": "function"
    },
    {
      "inputs": [
        {
          "internalType": "uint256",
          "name": "",
          "type": "uint256"
        }
      ],
      "name": "getAnswer",
      "outputs": [
        {
          "internalType": "int256",
          "name": "",
          "type": "int256"
        }
      ],
      "stateMutability": "pure",
      "type": "function"
    },
    {
      "inputs": [
        {
          "internalType": "uint80",
          "name": "roundId",
          "type": "uint80"
        }
      ],
      "name": "getRoundData",
      "outputs": [
        {
          "internalType": "uint80",
          "name": "roundId_",
          "type": "uint80"
        },
        {
          "internalType": "int256",
          "name": "answer",
          "type": "int256"
        },
        {
          "internalType": "uint256",
          "name": "startedAt",
          "type": "uint256"
        },
        {
          "internalType": "uint256",
          "name": "updatedAt",
          "type": "uint256"
        },
        {
          "internalType": "uint80",
          "name": "answeredInRound",
          "type": "uint80"
        }
      ],
      "stateMutability": "view",
      "type": "function"
    },
    {
      "inputs": [
        {
          "internalType": "uint256",
          "name": "",
          "type": "uint256"
        }
      ],
      "name": "getTimestamp",
      "outputs": [
        {
          "internalType": "uint256",
          "name": "",
          "type": "uint256"
        }
      ],
      "stateMutability": "pure",
      "type": "function"
    },
    {
      "inputs": [
        {
          "internalType": "contract TfiFeedRegistry",
          "name": "registry_",
          "type": "address"
        },
        {
          "internalType": "bytes32",
          "name": "registryKey_",
          "type": "bytes32"
        }
      ],
      "name": "initialize",
      "outputs": [],
      "stateMutability": "nonpayable",
      "type": "function"
    },
    {
      "inputs": [],
      "name": "latestAnswer",
      "outputs": [
        {
          "internalType": "int256",
          "name": "",
          "type": "int256"
        }
      ],
      "stateMutability": "pure",
      "type": "function"
    },
    {
      "inputs": [],
      "name": "latestRound",
      "outputs": [
        {
          "internalType": "uint256",
          "name": "",
          "type": "uint256"
        }
      ],
      "stateMutability": "pure",
      "type": "function"
    },
    {
      "inputs": [],
      "name": "latestRoundData",
      "outputs": [
        {
          "internalType": "uint80",
          "name": "roundId",
          "type": "uint80"
        },
        {
          "internalType": "int256",
          "name": "answer",
          "type": "int256"
        },
        {
          "internalType": "uint256",
          "name": "startedAt",
          "type": "uint256"
        },
        {
          "internalType": "uint256",
          "name": "updatedAt",
          "type": "uint256"
        },
        {
          "internalType": "uint80",
          "name": "answeredInRound",
          "type": "uint80"
        }
      ],
      "stateMutability": "view",
      "type": "function"
    },
    {
      "inputs": [],
      "name": "latestTimestamp",
      "outputs": [
        {
          "internalType": "uint256",
          "name": "",
          "type": "uint256"
        }
      ],
      "stateMutability": "pure",
      "type": "function"
    },
    {
      "inputs": [],
      "name": "registry",
      "outputs": [
        {
          "internalType": "contract TfiFeedRegistry",
          "name": "",
          "type": "address"
        }
      ],
      "stateMutability": "view",
      "type": "function"
    },
    {
      "inputs": [],
      "name": "registryKey",
      "outputs": [
        {
          "internalType": "bytes32",
          "name": "",
          "type": "bytes32"
        }
      ],
      "stateMutability": "view",
      "type": "function"
    },
    {
      "inputs": [],
      "name": "version",
      "outputs": [
        {
          "internalType": "uint256",
          "name": "",
          "type": "uint256"
        }
      ],
      "stateMutability": "pure",
      "type": "function"
    }
  ],
  "bytecode": "0x608060405234801561001057600080fd5b50610e32806100206000396000f3fe608060405234801561001057600080fd5b50600436106100cf5760003560e01c80637b1039991161008c578063b5ab58dc11610066578063b5ab58dc146101f8578063b633620c14610228578063be13f47c14610258578063feaf968c14610274576100cf565b80637b103999146101885780638205bf6a146101a65780639a6fc8f5146101c4576100cf565b80632501d166146100d4578063313ce567146100f257806350d25bcd1461011057806354fd4d501461012e578063668a0f021461014c5780637284e4161461016a575b600080fd5b6100dc610296565b6040516100e9919061076e565b60405180910390f35b6100fa61029c565b60405161010791906107a5565b60405180910390f35b6101186102a5565b60405161012591906107d9565b60405180910390f35b6101366102e2565b604051610143919061080d565b60405180910390f35b6101546102e7565b604051610161919061080d565b60405180910390f35b610172610324565b60405161017f91906108c1565b60405180910390f35b610190610361565b60405161019d9190610962565b60405180910390f35b6101ae610387565b6040516101bb919061080d565b60405180910390f35b6101de60048036038101906101d991906109c4565b6103c4565b6040516101ef959493929190610a00565b60405180910390f35b610212600480360381019061020d9190610a7f565b610480565b60405161021f91906107d9565b60405180910390f35b610242600480360381019061023d9190610a7f565b6104bd565b60405161024f919061080d565b60405180910390f35b610272600480360381019061026d9190610b28565b6104fa565b005b61027c61067a565b60405161028d959493929190610a00565b60405180910390f35b60015481565b60006012905090565b60006040517f08c379a00000000000000000000000000000000000000000000000000000000081526004016102d990610bb4565b60405180910390fd5b600090565b60006040517f08c379a000000000000000000000000000000000000000000000000000000000815260040161031b90610bb4565b60405180910390fd5b60606040518060400160405280600e81526020017f5466694665656441646170746572000000000000000000000000000000000000815250905090565b600060029054906101000a900473ffffffffffffffffffffffffffffffffffffffff1681565b60006040517f08c379a00000000000000000000000000000000000000000000000000000000081526004016103bb90610bb4565b60405180910390fd5b60008060008060008060029054906101000a900473ffffffffffffffffffffffffffffffffffffffff1673ffffffffffffffffffffffffffffffffffffffff1663b0345bbd60015488336040518463ffffffff1660e01b815260040161042c93929190610be3565b60a060405180830381865afa158015610449573d6000803e3d6000fd5b505050506040513d601f19601f8201168201806040525081019061046d9190610c70565b9450945094509450945091939590929450565b60006040517f08c379a00000000000000000000000000000000000000000000000000000000081526004016104b490610bb4565b60405180910390fd5b60006040517f08c379a00000000000000000000000000000000000000000000000000000000081526004016104f190610bb4565b60405180910390fd5b60008060019054906101000a900460ff1615905080801561052b5750600160008054906101000a900460ff1660ff16105b80610558575061053a30610732565b1580156105575750600160008054906101000a900460ff1660ff16145b5b610597576040517f08c379a000000000000000000000000000000000000000000000000000000000815260040161058e90610d5d565b60405180910390fd5b60016000806101000a81548160ff021916908360ff16021790555080156105d4576001600060016101000a81548160ff0219169083151502179055505b82600060026101000a81548173ffffffffffffffffffffffffffffffffffffffff021916908373ffffffffffffffffffffffffffffffffffffffff1602179055508160018190555080156106755760008060016101000a81548160ff0219169083151502179055507f7f26b83ff96e1f2b6a682f133852f6798a09c465da95921460cefb3847402498600160405161066c9190610db8565b60405180910390a15b505050565b60008060008060008060029054906101000a900473ffffffffffffffffffffffffffffffffffffffff1673ffffffffffffffffffffffffffffffffffffffff1663a3ac537f600154336040518363ffffffff1660e01b81526004016106e0929190610dd3565b60a060405180830381865afa1580156106fd573d6000803e3d6000fd5b505050506040513d601f19601f820116820180604052508101906107219190610c70565b945094509450945094509091929394565b6000808273ffffffffffffffffffffffffffffffffffffffff163b119050919050565b6000819050919050565b61076881610755565b82525050565b6000602082019050610783600083018461075f565b92915050565b600060ff82169050919050565b61079f81610789565b82525050565b60006020820190506107ba6000830184610796565b92915050565b6000819050919050565b6107d3816107c0565b82525050565b60006020820190506107ee60008301846107ca565b92915050565b6000819050919050565b610807816107f4565b82525050565b600060208201905061082260008301846107fe565b92915050565b600081519050919050565b600082825260208201905092915050565b60005b83811015610862578082015181840152602081019050610847565b83811115610871576000848401525b50505050565b6000601f19601f8301169050919050565b600061089382610828565b61089d8185610833565b93506108ad818560208601610844565b6108b681610877565b840191505092915050565b600060208201905081810360008301526108db8184610888565b905092915050565b600073ffffffffffffffffffffffffffffffffffffffff82169050919050565b6000819050919050565b600061092861092361091e846108e3565b610903565b6108e3565b9050919050565b600061093a8261090d565b9050919050565b600061094c8261092f565b9050919050565b61095c81610941565b82525050565b60006020820190506109776000830184610953565b92915050565b600080fd5b600069ffffffffffffffffffff82169050919050565b6109a181610982565b81146109ac57600080fd5b50565b6000813590506109be81610998565b92915050565b6000602082840312156109da576109d961097d565b5b60006109e8848285016109af565b91505092915050565b6109fa81610982565b82525050565b600060a082019050610a1560008301886109f1565b610a2260208301876107ca565b610a2f60408301866107fe565b610a3c60608301856107fe565b610a4960808301846109f1565b9695505050505050565b610a5c816107f4565b8114610a6757600080fd5b50565b600081359050610a7981610a53565b92915050565b600060208284031215610a9557610a9461097d565b5b6000610aa384828501610a6a565b91505092915050565b6000610ab7826108e3565b9050919050565b6000610ac982610aac565b9050919050565b610ad981610abe565b8114610ae457600080fd5b50565b600081359050610af681610ad0565b92915050565b610b0581610755565b8114610b1057600080fd5b50565b600081359050610b2281610afc565b92915050565b60008060408385031215610b3f57610b3e61097d565b5b6000610b4d85828601610ae7565b9250506020610b5e85828601610b13565b9150509250929050565b7f6e6f7420696d706c656d656e7465640000000000000000000000000000000000600082015250565b6000610b9e600f83610833565b9150610ba982610b68565b602082019050919050565b60006020820190508181036000830152610bcd81610b91565b9050919050565b610bdd81610aac565b82525050565b6000606082019050610bf8600083018661075f565b610c0560208301856109f1565b610c126040830184610bd4565b949350505050565b600081519050610c2981610998565b92915050565b610c38816107c0565b8114610c4357600080fd5b50565b600081519050610c5581610c2f565b92915050565b600081519050610c6a81610a53565b92915050565b600080600080600060a08688031215610c8c57610c8b61097d565b5b6000610c9a88828901610c1a565b9550506020610cab88828901610c46565b9450506040610cbc88828901610c5b565b9350506060610ccd88828901610c5b565b9250506080610cde88828901610c1a565b9150509295509295909350565b7f496e697469616c697a61626c653a20636f6e747261637420697320616c72656160008201527f647920696e697469616c697a6564000000000000000000000000000000000000602082015250565b6000610d47602e83610833565b9150610d5282610ceb565b604082019050919050565b60006020820190508181036000830152610d7681610d3a565b9050919050565b6000819050919050565b6000610da2610d9d610d9884610d7d565b610903565b610789565b9050919050565b610db281610d87565b82525050565b6000602082019050610dcd6000830184610da9565b92915050565b6000604082019050610de8600083018561075f565b610df56020830184610bd4565b939250505056fea264697066735822122013bd7fc4aacf1d972ec17d62b0ac6e9fade64396403c1227d2ec7744748491c864736f6c634300080f0033",
  "linkReferences": {},
  "deployedLinkReferences": {}
}