{
  "_format": "hh-sol-artifact-1",
  "contractName": "TfiFeedRegistry",
  "sourceName": "contracts/TfiFeedRegistry.sol",
  "abi": [
    {
      "anonymous": false,
      "inputs": [
        {
          "indexed": false,
          "internalType": "uint8",
          "name": "version",
          "type": "uint8"
        }
      ],
      "name": "Initialized",
      "type": "event"
    },
    {
      "anonymous": false,
      "inputs": [
        {
          "indexed": true,
          "internalType": "address",
          "name": "previousOwner",
          "type": "address"
        },
        {
          "indexed": true,
          "internalType": "address",
          "name": "newOwner",
          "type": "address"
        }
      ],
      "name": "OwnershipTransferred",
      "type": "event"
    },
    {
      "inputs": [
        {
          "internalType": "bytes32",
          "name": "key",
          "type": "bytes32"
        },
        {
          "internalType": "uint80",
          "name": "roundId",
          "type": "uint80"
        },
        {
          "internalType": "address",
          "name": "sender",
          "type": "address"
        }
      ],
      "name": "getRoundData",
      "outputs": [
        {
          "internalType": "uint80",
          "name": "roundId_",
          "type": "uint80"
        },
        {
          "internalType": "int256",
          "name": "answer",
          "type": "int256"
        },
        {
          "internalType": "uint256",
          "name": "startedAt",
          "type": "uint256"
        },
        {
          "internalType": "uint256",
          "name": "updatedAt",
          "type": "uint256"
        },
        {
          "internalType": "uint80",
          "name": "answeredInRound",
          "type": "uint80"
        }
      ],
      "stateMutability": "view",
      "type": "function"
    },
    {
      "inputs": [],
      "name": "initialize",
      "outputs": [],
      "stateMutability": "nonpayable",
      "type": "function"
    },
    {
      "inputs": [],
      "name": "latestRound",
      "outputs": [
        {
          "internalType": "uint80",
          "name": "",
          "type": "uint80"
        }
      ],
      "stateMutability": "view",
      "type": "function"
    },
    {
      "inputs": [
        {
          "internalType": "bytes32",
          "name": "key",
          "type": "bytes32"
        },
        {
          "internalType": "address",
          "name": "sender",
          "type": "address"
        }
      ],
      "name": "latestRoundData",
      "outputs": [
        {
          "internalType": "uint80",
          "name": "roundId_",
          "type": "uint80"
        },
        {
          "internalType": "int256",
          "name": "answer",
          "type": "int256"
        },
        {
          "internalType": "uint256",
          "name": "startedAt",
          "type": "uint256"
        },
        {
          "internalType": "uint256",
          "name": "updatedAt",
          "type": "uint256"
        },
        {
          "internalType": "uint80",
          "name": "answeredInRound",
          "type": "uint80"
        }
      ],
      "stateMutability": "view",
      "type": "function"
    },
    {
      "inputs": [],
      "name": "owner",
      "outputs": [
        {
          "internalType": "address",
          "name": "",
          "type": "address"
        }
      ],
      "stateMutability": "view",
      "type": "function"
    },
    {
      "inputs": [],
      "name": "renounceOwnership",
      "outputs": [],
      "stateMutability": "nonpayable",
      "type": "function"
    },
    {
      "inputs": [
        {
          "internalType": "bytes32",
          "name": "role_",
          "type": "bytes32"
        },
        {
          "internalType": "bytes32",
          "name": "key_",
          "type": "bytes32"
        },
        {
          "internalType": "address",
          "name": "address_",
          "type": "address"
        },
        {
          "internalType": "bool",
          "name": "value",
          "type": "bool"
        }
      ],
      "name": "setAccess",
      "outputs": [],
      "stateMutability": "nonpayable",
      "type": "function"
    },
    {
      "inputs": [
        {
          "internalType": "bytes32",
          "name": "key",
          "type": "bytes32"
        },
        {
          "internalType": "uint80",
          "name": "roundId",
          "type": "uint80"
        },
        {
          "internalType": "int256",
          "name": "answer",
          "type": "int256"
        },
        {
          "internalType": "uint256",
          "name": "startedAt",
          "type": "uint256"
        },
        {
          "internalType": "uint256",
          "name": "updatedAt",
          "type": "uint256"
        }
      ],
      "name": "setRoundData",
      "outputs": [],
      "stateMutability": "nonpayable",
      "type": "function"
    },
    {
      "inputs": [
        {
          "internalType": "address",
          "name": "newOwner",
          "type": "address"
        }
      ],
      "name": "transferOwnership",
      "outputs": [],
      "stateMutability": "nonpayable",
      "type": "function"
    }
  ],
  "bytecode": "0x608060405234801561001057600080fd5b506110e2806100206000396000f3fe608060405234801561001057600080fd5b50600436106100935760003560e01c80638da5cb5b116100665780638da5cb5b146100e6578063a3ac537f14610104578063b0345bbd14610138578063f2dc659c1461016c578063f2fde38b1461018857610093565b8063183eaba914610098578063668a0f02146100b4578063715018a6146100d25780638129fc1c146100dc575b600080fd5b6100b260048036038101906100ad9190610a8b565b6101a4565b005b6100bc61022b565b6040516100c99190610b17565b60405180910390f35b6100da610247565b005b6100e461025b565b005b6100ee610399565b6040516100fb9190610b41565b60405180910390f35b61011e60048036038101906101199190610b5c565b6103c3565b60405161012f959493929190610bce565b60405180910390f35b610152600480360381019061014d9190610c4d565b610402565b604051610163959493929190610bce565b60405180910390f35b61018660048036038101906101819190610cf8565b61057e565b005b6101a2600480360381019061019d9190610d73565b610694565b005b6101ac610717565b8060676000868152602001908152602001600020600085815260200190815260200160002060008473ffffffffffffffffffffffffffffffffffffffff1673ffffffffffffffffffffffffffffffffffffffff16815260200190815260200160002060006101000a81548160ff02191690831515021790555050505050565b606560009054906101000a900469ffffffffffffffffffff1681565b61024f610717565b6102596000610795565b565b60008060019054906101000a900460ff1615905080801561028c5750600160008054906101000a900460ff1660ff16105b806102b9575061029b3061085b565b1580156102b85750600160008054906101000a900460ff1660ff16145b5b6102f8576040517f08c379a00000000000000000000000000000000000000000000000000000000081526004016102ef90610e23565b60405180910390fd5b60016000806101000a81548160ff021916908360ff1602179055508015610335576001600060016101000a81548160ff0219169083151502179055505b61033d61087e565b80156103965760008060016101000a81548160ff0219169083151502179055507f7f26b83ff96e1f2b6a682f133852f6798a09c465da95921460cefb3847402498600160405161038d9190610e95565b60405180910390a15b50565b6000603360009054906101000a900473ffffffffffffffffffffffffffffffffffffffff16905090565b60008060008060006103ee87606560009054906101000a900469ffffffffffffffffffff1688610402565b945094509450945094509295509295909350565b60008060008060006104367f67657400000000000000000000000000000000000000000000000000000000008960006108d7565b8061046857506104677f676574000000000000000000000000000000000000000000000000000000000089336108d7565b5b806104cd57506104997f70726f787900000000000000000000000000000000000000000000000000000089336108d7565b80156104cc57506104cb7f676574000000000000000000000000000000000000000000000000000000000089886108d7565b5b5b6104d657600080fd5b6000606660008a815260200190815260200160002060008969ffffffffffffffffffff1669ffffffffffffffffffff1681526020019081526020016000206040518060600160405290816000820154815260200160018201548152602001600282015481525050905087816000015182602001518360400151606560009054906101000a900469ffffffffffffffffffff169550955095509550955050939792965093509350565b6105a97f736574000000000000000000000000000000000000000000000000000000000086336108d7565b6105e8576040517f08c379a00000000000000000000000000000000000000000000000000000000081526004016105df90610efc565b60405180910390fd5b83606560006101000a81548169ffffffffffffffffffff021916908369ffffffffffffffffffff1602179055506040518060600160405280848152602001838152602001828152506066600087815260200190815260200160002060008669ffffffffffffffffffff1669ffffffffffffffffffff1681526020019081526020016000206000820151816000015560208201518160010155604082015181600201559050505050505050565b61069c610717565b600073ffffffffffffffffffffffffffffffffffffffff168173ffffffffffffffffffffffffffffffffffffffff160361070b576040517f08c379a000000000000000000000000000000000000000000000000000000000815260040161070290610f8e565b60405180910390fd5b61071481610795565b50565b61071f610951565b73ffffffffffffffffffffffffffffffffffffffff1661073d610399565b73ffffffffffffffffffffffffffffffffffffffff1614610793576040517f08c379a000000000000000000000000000000000000000000000000000000000815260040161078a90610ffa565b60405180910390fd5b565b6000603360009054906101000a900473ffffffffffffffffffffffffffffffffffffffff16905081603360006101000a81548173ffffffffffffffffffffffffffffffffffffffff021916908373ffffffffffffffffffffffffffffffffffffffff1602179055508173ffffffffffffffffffffffffffffffffffffffff168173ffffffffffffffffffffffffffffffffffffffff167f8be0079c531659141344cd1fd0a4f28419497f9722a3daafe3b4186f6b6457e060405160405180910390a35050565b6000808273ffffffffffffffffffffffffffffffffffffffff163b119050919050565b600060019054906101000a900460ff166108cd576040517f08c379a00000000000000000000000000000000000000000000000000000000081526004016108c49061108c565b60405180910390fd5b6108d5610959565b565b600060676000858152602001908152602001600020600084815260200190815260200160002060008373ffffffffffffffffffffffffffffffffffffffff1673ffffffffffffffffffffffffffffffffffffffff16815260200190815260200160002060009054906101000a900460ff1690509392505050565b600033905090565b600060019054906101000a900460ff166109a8576040517f08c379a000000000000000000000000000000000000000000000000000000000815260040161099f9061108c565b60405180910390fd5b6109b86109b3610951565b610795565b565b600080fd5b6000819050919050565b6109d2816109bf565b81146109dd57600080fd5b50565b6000813590506109ef816109c9565b92915050565b600073ffffffffffffffffffffffffffffffffffffffff82169050919050565b6000610a20826109f5565b9050919050565b610a3081610a15565b8114610a3b57600080fd5b50565b600081359050610a4d81610a27565b92915050565b60008115159050919050565b610a6881610a53565b8114610a7357600080fd5b50565b600081359050610a8581610a5f565b92915050565b60008060008060808587031215610aa557610aa46109ba565b5b6000610ab3878288016109e0565b9450506020610ac4878288016109e0565b9350506040610ad587828801610a3e565b9250506060610ae687828801610a76565b91505092959194509250565b600069ffffffffffffffffffff82169050919050565b610b1181610af2565b82525050565b6000602082019050610b2c6000830184610b08565b92915050565b610b3b81610a15565b82525050565b6000602082019050610b566000830184610b32565b92915050565b60008060408385031215610b7357610b726109ba565b5b6000610b81858286016109e0565b9250506020610b9285828601610a3e565b9150509250929050565b6000819050919050565b610baf81610b9c565b82525050565b6000819050919050565b610bc881610bb5565b82525050565b600060a082019050610be36000830188610b08565b610bf06020830187610ba6565b610bfd6040830186610bbf565b610c0a6060830185610bbf565b610c176080830184610b08565b9695505050505050565b610c2a81610af2565b8114610c3557600080fd5b50565b600081359050610c4781610c21565b92915050565b600080600060608486031215610c6657610c656109ba565b5b6000610c74868287016109e0565b9350506020610c8586828701610c38565b9250506040610c9686828701610a3e565b9150509250925092565b610ca981610b9c565b8114610cb457600080fd5b50565b600081359050610cc681610ca0565b92915050565b610cd581610bb5565b8114610ce057600080fd5b50565b600081359050610cf281610ccc565b92915050565b600080600080600060a08688031215610d1457610d136109ba565b5b6000610d22888289016109e0565b9550506020610d3388828901610c38565b9450506040610d4488828901610cb7565b9350506060610d5588828901610ce3565b9250506080610d6688828901610ce3565b9150509295509295909350565b600060208284031215610d8957610d886109ba565b5b6000610d9784828501610a3e565b91505092915050565b600082825260208201905092915050565b7f496e697469616c697a61626c653a20636f6e747261637420697320616c72656160008201527f647920696e697469616c697a6564000000000000000000000000000000000000602082015250565b6000610e0d602e83610da0565b9150610e1882610db1565b604082019050919050565b60006020820190508181036000830152610e3c81610e00565b9050919050565b6000819050919050565b600060ff82169050919050565b6000819050919050565b6000610e7f610e7a610e7584610e43565b610e5a565b610e4d565b9050919050565b610e8f81610e64565b82525050565b6000602082019050610eaa6000830184610e86565b92915050565b7f6e6f207065726d697373696f6e00000000000000000000000000000000000000600082015250565b6000610ee6600d83610da0565b9150610ef182610eb0565b602082019050919050565b60006020820190508181036000830152610f1581610ed9565b9050919050565b7f4f776e61626c653a206e6577206f776e657220697320746865207a65726f206160008201527f6464726573730000000000000000000000000000000000000000000000000000602082015250565b6000610f78602683610da0565b9150610f8382610f1c565b604082019050919050565b60006020820190508181036000830152610fa781610f6b565b9050919050565b7f4f776e61626c653a2063616c6c6572206973206e6f7420746865206f776e6572600082015250565b6000610fe4602083610da0565b9150610fef82610fae565b602082019050919050565b6000602082019050818103600083015261101381610fd7565b9050919050565b7f496e697469616c697a61626c653a20636f6e7472616374206973206e6f74206960008201527f6e697469616c697a696e67000000000000000000000000000000000000000000602082015250565b6000611076602b83610da0565b91506110818261101a565b604082019050919050565b600060208201905081810360008301526110a581611069565b905091905056fea264697066735822122029264f96ef22b4701a831d7c0c5dbdc4e7c2cc8eac05e73d9eecee58091c552a64736f6c634300080f0033",
  "linkReferences": {},
  "deployedLinkReferences": {}
}